:0A0000000C9446000C9400000C94D0
:10000A0000000C9400000C9400000C9400000C9466
:10001A0000000C9400000C9400000C9400000C9456
:10002A0000000C9400000C9400000C9400000C9446
:10003A0000000C9400000C9400000C9400000C9436
:10004A0000000C9400000C9400000C9400000C9426
:10005A0000000C9400000C9400000C9400000C9416
:10006A0000000C9400000C9400000C9400000C9406
:10007A0000000C9400000C9400000C9400000C94F6
:10008A000000F894EE27ECBBF1E0F5BFE5BFE09382
:10009A006C008DE0A2E0BB27ED938A95E9F780E03A
:1000AA0090E1A0E0B1E0ED930197E9F78BBFEFEFA4
:1000BA00EDBFE0E1EEBFC0E0D5E00C946400EFEFE5
:1000CA00E7BBE0EFE0936100E0EEE093620001E05D
:1000DA0010E0173030F408BBA4E105D0000F1F5F11
:1000EA00F8CFF5CFFFCF16D05A2F20E533EC00E03A
:1000FA0010E0E52FD801F0E0AE17BF0744F4F9018C
:10010A00215030403097D9F70F5F1F4FF2CF09D0F7
:10011A00269608955A934A933A932A931A930A93DE
:10012A0008955D814C813B812A8119810881089556
:00000001FF
