:0E0000000C9453000C9400000C9400000C941F
:10000E0000000C9400000C9400000C9400000C9462
:10001E0000000C9400000C9400000C9400000C9452
:10002E0000000C9400000C9400000C9400000C9442
:10003E0000000C9400000C9400000C9400000C9432
:10004E0000000C9400000C9400000C9400000C9422
:10005E0000000C9400000C9400000C9400000C9412
:10006E0000000C9400000C9400000C9400000C9402
:10007E0000000C9400000C9400000C940000000092
:10008E003F065B4F666D7D077F6F020004008C009C
:10009E000A0000058E000000F894EE27ECBBF1E09C
:1000AE00F5BFE5BFE0936C008DE0A2E0BB27ED93BA
:1000BE008A95E9F780E090E1A0E0B1E0ED93019739
:1000CE00E9F7E8E9F0E085919591009761F0A59147
:1000DE00B59105901590BF01F00105900D92019715
:1000EE00E1F7FB01F0CF8BBFEFEFEDBFE0E1EEBF2D
:1000FE00C0E0D5E00C948300EFEFE7BBE0E0E2B99F
:10010E00E0EFE0936100F20131962F01D20109D0A8
:10011E00E0EDF2E0E415F50511F444245524F3CF97
:10012E00FFCFBA93AA934AD0AE81BF81E8E5F2E041
:10013E006AD0A1E0B0E07AD05E2FAE81BF81ECE351
:10014E00F0E061D0DF01EAE0F0E062D02E2F25D0A2
:10015E005AD0DF01E6E0F0E05BD03E2F1ED058D043
:10016E000E2F10E01230B0F4E0EEE0936200E52FB7
:10017E0019D0E0EDE0936200E22F14D0E0EBE093B3
:10018E006200E32F0FD0E0E7E0936200E02F0AD089
:10019E001F5FE8CF1AD028960895AE81BF81EAE09E
:1001AE00F0E00895F0E0E050FB4FE081E8BBAAE0FC
:1001BE00B0E054D0E0EFE093620008955A934A9372
:1001CE003A932A931A930A9308955D814C813B8149
:1001DE002A81198108810895F195E195F0400895DD
:1001EE000024112490E1AA0FBB1F001C111C0E1A33
:1001FE001F0A18F40E0E1F1E01C0A1609A9599F7E2
:10020E00FD01D00108951CD0EBDF0EF4E5DF08955B
:10021E00E894B7FF04C0B195A195B0406894F7FD7E
:10022E00DBDFDEDFFD010EF4D7DF0895E894F7FF84
:10023E0002C0D2DF6894EA23FB230EF4CDDF0895CB
:10024E00E894F7FF02C0C8DF6894B7FF06C0B19507
:10025E00A195B04000F8039400FA0895109639F075
:10026E00A89580ED97E00197F1F71197C9F70895DA
:00000001FF
