:080000000C9453000C94000065
:100008000C9400000C9400000C9400000C94000068
:100018000C9400000C9400000C9400000C94000058
:100028000C9400000C9400000C9400000C94000048
:100038000C9400000C9400000C9400000C94000038
:100048000C9400000C9400000C9400000C94000028
:100058000C9400000C9400000C9400000C94000018
:100068000C9400000C9400000C9400000C94000008
:100078000C9400000C9400000C9400000C940000F8
:100088000C94000030023F065B4F666D7D077F6F62
:10009800020004008C000A0000058E000000F8949D
:1000A800EE27ECBBF1E0F5BFE5BFE0936C008DE017
:1000B800A2E0BB27ED938A95E9F780E090E1A0E004
:1000C800B1E0ED930197E9F7E8E9F0E085919591C2
:1000D800009761F0A591B59105901590BF01F001C9
:1000E80005900D920197E1F7FB01F0CF8BBFEFEF81
:1000F800EDBFE0E1EEBFC0E0D5E00C948300EFEF88
:10010800E7BBE0E0E2B9E0EFE0936100F20131968D
:100118002F01D20109D0EFE0FEE0E415F50511F456
:1001280044245524F3CFFFCFBA93AA9349D0AE8184
:10013800BF81E8E5F2E02DD05E2FAE81BF81ECE310
:10014800F0E063D0DF01EAE0F0E064D02E2F27D0A2
:1001580020D03E2F24D05ED00E2F10E01A30B0F4FD
:10016800E0EEE0936200E52F1FD0E0EDE09362003F
:10017800E22F1AD0E0EBE0936200E32F15D0E0E71E
:10018800E0936200E02F10D01F5FE8CF20D02896C0
:1001980008953BD0DF01E6E0F0E03CD00895AE8161
:1001A800BF81EAE0F0E00895F0E0E050FB4FE08125
:1001B800E8BBA9E1B0E04AD0E0EFE093620008951F
:1001C8005A934A933A932A931A930A9308955D810E
:1001D8004C813B812A81198108810895F195E19527
:1001E800F04008950024112490E1AA0FBB1F001CC1
:1001F800111C0E1A1F0A18F40E0E1F1E01C0A16052
:100208009A9599F7FD01D001089512D0EBDF0EF40D
:10021800E5DF0895E894B7FF04C0B195A195B04013
:100228006894F7FDDBDFDEDFFD010EF4D7DF08950C
:10023800E894F7FF02C0D2DF6894B7FF06C0B19513
:10024800A195B04000F8039400FA0895109639F08B
:10025800A89580ED97E00197F1F71197C9F70895F0
:00000001FF
