:100000000C9454000C9400000C9400000C9400001C
:100010000C9400000C94AD000C9400000C940000B3
:100020000C9400000C9400000C9400000C94000050
:100030000C9400000C9400000C9400000C94000040
:100040000C9400000C9400000C9400000C94000030
:100050000C9400000C9400000C9400000C94000020
:100060000C9400000C9400000C9400000C94000010
:100070000C9400000C9400000C9400000C94000000
:100080000C9400000C9400000C940000010000008F
:100090003F065B4F666D7D077F6F040004008C0098
:1000A0000A00000590000000F894EE27ECBBF1E098
:1000B000F5BFE5BFE0936C008DE0A2E0BB27ED93B8
:1000C0008A95E9F780E090E1A0E0B1E0ED93019737
:1000D000E9F7EAE9F0E085919591009761F0A59143
:1000E000B59105901590BF01F00105900D92019713
:1000F000E1F7FB01F0CF8BBFEFEFEDBFE0E1EEBF2B
:10010000C0E0D5E00C948400EFEFE7BBE0E0E2B99B
:10011000E0EFE0936100E0E8EFBFE2E8EABFE0E98A
:10012000E9BFE1E0E415B9F45524E9E15E1670F4A5
:10013000E72DF0E0E050FB4FE081E8BBE0E7E09323
:100140006200AAE0B0E012D05394EFCF7394EAE0DB
:10015000E71509F47724E5CFFFCFEA93EFB7EA93E9
:10016000E1E04E26E991EFBFE9911895109639F03C
:10017000A89580EA9FE00197F1F71197C9F70895D4
:00000001FF
