:100000000C9457000C9400000C9400000C94000019
:100010000C9400000C94E4000C94EA000C94000092
:100020000C9400000C9400000C9400000C94000050
:100030000C9400000C9400000C9400000C94000040
:100040000C9400000C9400000C9400000C94000030
:100050000C9400000C9400000C9400000C94000020
:100060000C9400000C9400000C9400000C94000010
:100070000C9400000C9400000C9400000C94000000
:100080000C9400000C9400000C940000010000008F
:100090000000000000003F065B4F666D7D077F6F2C
:1000A0000A0004008C000A00000596000000F89485
:1000B000EE27ECBBF1E0F5BFE5BFE0936C008DE00F
:1000C000A2E0BB27ED938A95E9F780E090E1A0E0FC
:1000D000B1E0ED930197E9F7E0EAF0E085919591C1
:1000E000009761F0A591B59105901590BF01F001C1
:1000F00005900D920197E1F7FB01F0CF8BBFEFEF79
:10010000EDBFE0E1EEBFC0E0D5E00C948700EFEF7B
:10011000E7BBE0E0E2B9E0EFE09361007894EAE069
:10012000EABFE0E3E9BF65D0E1E0E415C1F461D0E6
:100130005394F40131964F01E0E1FEE0E615F70536
:1001400011F466247724EAE0F0E08E169F0628F08A
:10015000F30131963F0188249924442041F7E3CFED
:10016000FFCF1A930A938D01E8E5F2E047D0E093C0
:100170000A05D801ECE3F0E053D0DF01EAE0F0E05B
:1001800062D0CE2ED801EAE0F0E038D0DE2ED801E1
:10019000EAE0F0E058D0AE2EE0E7E0936200EA2D0E
:1001A00033D0E0EBE0936200ED2D2ED0E0EDE09354
:1001B0006200EC2D29D0E0EEE0936200E0910A05A8
:1001C00023D0099119910895EA93EFB74424EFBF22
:1001D000E9911895EA93EFB7EA9366247724E0E073
:1001E000E0930A05CC24DD24AA24E991EFBFE9912C
:1001F0001895D301B6DFA2E0B0E028C011D0DF012E
:10020000E6E0F0E020D00895F0E0E050FB4FE08120
:10021000E8BBA2E0B0E01AD0E0EFE09362000895FE
:100220000024112490E1AA0FBB1F001C111C0E1A00
:100230001F0A18F40E0E1F1E01C0A1609A9599F7AF
:10024000FD01D0010895ECDFFD010895109639F00D
:10025000A89580EA9FE00197F1F71197C9F70895F3
:00000001FF
