:020000000C945E
:100002005D000C9400000C9400000C9400000C9411
:1000120000000C9400000C9400000C9400000C945E
:1000220000000C9400000C9400000C9400000C944E
:1000320000000C9400000C9400000C9400000C943E
:1000420000000C9400000C9400000C9400000C942E
:1000520000000C9400000C9400000C9400000C941E
:1000620000000C9400000C9400000C9400000C940E
:1000720000000C9400000C9400000C9400000C94FE
:1000820000000C9400000C9400001027E8036400A8
:100092000A00010000100001100001000000102001
:1000A200408080C0010007009E0004000005A000FF
:1000B20002000405A4000000F894EE27ECBBF1E076
:1000C200F5BFE5BFE0936C008DE0A2E0BB27ED93A6
:1000D2008A95E9F780E090E1A0E0B1E0ED93019725
:1000E200E9F7E6EAF0E085919591009761F0A59134
:1000F200B59105901590BF01F00105900D92019701
:10010200E1F7FB01F0CF8BBFEFEFEDBFE0E1EEBF18
:10011200C0E0D5E00C948D00E0EFEABBEFE0E7BB76
:10012200EFEFE1BBA0E1CED0B0D01BD07A92A0E03D
:100132009AD0A92DB4D0A5E0B0E030D1662049F024
:10014200E9B3EF7011F4662404C0A5E0B0E026D153
:10015200F7CFE0E1E71511F498D0772456D0E5CF38
:10016200FFCF4394E42DF0E0A3E0B0E00DD14E2E9A
:10017200F0E0309719F4D1D0E1E014C0E130A0E012
:10018200FA0719F4CAD0E4E00DC0E230A0E0FA07A1
:1001920019F4C3D0E7E006C0E330A0E0FA0719F48F
:1001A200BCD0EAE05E2EA5E0B0E0F8D0C89B0CC05F
:1001B200E52DE05D9E2EEAE0E51511F4EAE29E2EC1
:1001C2007394E1E06E2E20C0C99B11C0E52DEF5C57
:1001D2009E2EEAE0E51511F4E0E39E2EEAE0E51535
:1001E20011F4E0E39E2E7394E1E06E2E0DC0CA9BE3
:1001F2000BC0E52DEE5C9E2EEAE0E51511F4E3E27C
:100202009E2E7394E1E06E2E08951A93E92DF0E08C
:10021200F097DF01EAE0F0E0A9D01E2F18BB7BC007
:100222001A931A2FE2B3EF70AE2FE12FE07FEA2B81
:10023200E2BB8BE18A95F1F7929A8BE18A95F1F70D
:1002420092988BE18A95F1F766C0AA93A881E8DFBC
:10025200E881E295E883A881E3DF88EC90E00197EA
:10026200F1F7219608951A930A931A2F0A81E12F22
:10027200F0E0EC5FFA4FE081E00FAE2FE6DF802E78
:10028200B12E1981088123960895A2E04DD0ACE0E9
:10029200DCDFA1E049D0E0E0BE2E8E2E08951A9355
:1002A2001A2F1A3011F08A1438F0E0E0EA93B3946E
:1002B200AB2DD9DF1A3079F18394909AA12FC5DF43
:1002C200909829C01A931A2FE1B3E06FE1BB8A9A82
:1002D200889A899A929890989198A12EE12FE05845
:1002E200E0930605E12FE054E0930705A4E1B0E0B6
:1002F20055D01ED01DD01CD0A0E292DF80E991E043
:100302000197F1F7A8E2A1DFA4E09FDFA5E89DDF56
:10031200A6E09BDFBADF19910895E42DF0E0E050EA
:10032200FB4FE081EBBB089590DFA3E0B0E036C065
:10033200A0E376DF80E991E00197F1F70895F19566
:10034200E195F04008950024112490E1AA0FBB1F0B
:10035200001C111C0E1A1F0A18F40E0E1F1E01C0DB
:10036200A1609A9599F7FD01D0010895E894B7FF2D
:1003720004C0B195A195B0406894F7FDE0DFE3DFDA
:10038200FD010EF4DCDF0895E894F7FF02C0D7DF29
:100392006894EA23FB230EF4D2DF0895109639F015
:1003A200A89580EA9FE00197F1F71197C9F70895A0
:00000001FF
