:040000000C94460016
:100004000C9400000C9400000C9400000C9400006C
:100014000C9400000C9400000C9400000C9400005C
:100024000C9400000C9400000C9400000C9400004C
:100034000C9400000C9400000C9400000C9400003C
:100044000C9400000C9400000C9400000C9400002C
:100054000C9400000C9400000C9400000C9400001C
:100064000C9400000C9400000C9400000C9400000C
:100074000C9400000C9400000C9400000C940000FC
:100084000C9400000C940000F894EE27ECBBF1E013
:10009400F5BFE5BFE0936C008DE0A2E0BB27ED93D4
:1000A4008A95E9F780E090E1A0E0B1E0ED93019753
:1000B400E9F78BBFEFEFEDBFE0E1EEBFC0E0D5E0C5
:1000C4000C9495001A931A2FEEEF03C01A931A2F6B
:1000D400EFEFE093650012BBA0916500E2E0EA2730
:1000E400E0936500A2E0B0E069D019910895AFE013
:1000F40061D0A5E05FD080E991E00197F1F7A8E332
:10010400E5DFA8E0E3DFA1E0E1DFA6E0DFDFACE0CC
:10011400DDDF0895E3E0E0936400EFEFE1BBE2BBD1
:10012400E09365000895F6DFE2DFA0E8CBDFADE2FF
:10013400CDDFA1E4CBDFA4E5C9DFADE4C7DFA5E4EF
:10014400C5DFA7E4C3DFA1E4C1DFA1E3BFDFA2E30E
:10015400BDDFA8E3BBDFA0E2B9DFA4E5B7DFA5E418
:10016400B5DFA3E5B3DFA4E5B1DFADE2AFDFA0EC1B
:10017400A9DFA1E2ABDFA0E4A9DFA3E2A7DFA4E249
:10018400A5DFA5E2A3DFAEE5A1DFA6E29FDFAAE239
:100194009DDFA8E29BDFA9E299DFACE397DFAEE342
:1001A40095DFABE793DFADE791DFADE28FDFABE245
:1001B4008DDFFFCFB0E002D0A8E388CF109639F0EE
:1001C400A89580EA9FE00197F1F71197C9F7089580
:00000001FF
