:100000000C9460000C9400000C9400000C94000010
:100010000C9400000C9400000C9400000C94000060
:100020000C9400000C9400000C9400000C94000050
:100030000C9400000C9400000C9400000C94000040
:100040000C9400000C9400000C9400000C94000030
:100050000C9400000C9400000C9400000C94000020
:100060000C9400000C9400000C9400000C94000010
:100070000C9400000C9400000C9400000C94000000
:100080000C9400000C9400000C9400001027E8036E
:1000900064000A000100001000011000010041543A
:1000A0004D45474120313238004B494D2048594594
:1000B0004F4B4A494E0080C002000005B6000000C8
:1000C000F894EE27ECBBF1E0F5BFE5BFE0936C00E0
:1000D0008DE0A2E0BB27ED938A95E9F780E090E1FF
:1000E000A0E0B1E0ED930197E9F7E8EBF0E085914E
:1000F0009591009761F0A591B59105901590BF017C
:10010000F00105900D920197E1F7FB01F0CF8BBF55
:10011000EFEFEDBFE0E1EEBFC0E0D5E00C94900062
:10012000EFEFE1BBA0E1A2D058D0E3E0EA93A0E07A
:1001300046D0AEE9B0E077D0E3E0EA93A1E03FD06B
:10014000A9EAB0E070D0FFCFFFE0FA95F1F708958B
:10015000A1B3AF70A1BB919A9098F6DF929AF4DFA9
:10016000A0B39298F1DF929AEFDF9298A7FDF5CFB6
:100170000895A07FAB2BA2BB929AE6DF9298E4DFB2
:100180000895AA939198A1B3A76FA1BBB2B3BF7012
:10019000A881EFDFA881A295ECDF919A0C9466010B
:1001A000929AD2DFE0B39298CFDFE07F0895CCDF60
:1001B000F7DFAE2FF5DF9198E295EA2B0895AA9329
:1001C000C7DFE881F0E0E050FB4FE081A981AE0F8E
:1001D000D8DF5980488022960895BADFA2E0D1DFA7
:1001E000B7DFACE0CEDFB4DFA1E0CBDFE0E04E2E46
:1001F0005E2E0895AA93EF93FF93A8816894AA3086
:1002000019F0E894571430F04394E0E0EA93A42DF9
:10021000D6DF2EF053949CDF909AA881B2DFFF9135
:10022000EF910C946601BA93AA931A93E981FA812B
:100230003196E983FA833197E4911E2FE03019F06B
:10024000A12FD8DFF3CF188123960895AA27BB27C3
:100250001197F1F70895AA939198A1B3A76FA1BB45
:10026000B2B3BF70A88185DF919A30C0AA939298EB
:1002700090987880E881E058E0930205E881E054A6
:10028000E0930305E3DFA0E3E6DFE0DFA0E3E3DFE5
:10029000DDDFA0E3E0DFDADFA0E2DDDFD7DFA8E229
:1002A00070DFD4DFA4E06DDFD1DFA5E86ADFCEDF49
:1002B000A1B3AF70A1BB919A7ADFE53011F0E0E015
:1002C00005C046DFA6E05DDF88DFE1E02196089506
:00000001FF
