:0C0000000C944E000C9400000C940000C6
:10000C000C9400000C9400000C9400000C94000064
:10001C000C9400000C9400000C9400000C94000054
:10002C000C9400000C9400000C9400000C94000044
:10003C000C9400000C9400000C9400000C94000034
:10004C000C9400000C9400000C9400000C94000024
:10005C000C9400000C9400000C9400000C94000014
:10006C000C9400000C9400000C9400000C94000004
:10007C000C9400000C9400000C9400000C940000F4
:10008C00FE00FD00FB00F700EF00DF00BF007F006B
:10009C00F894EE27ECBBF1E0F5BFE5BFE0936C0004
:1000AC008DE0A2E0BB27ED938A95E9F780E090E123
:1000BC00A0E0B1E0ED930197E9F78BBFEFEFEDBF57
:1000CC00E0E1EEBFC0E0D5E00C946C00609780E1FD
:1000DC0060E070E0ECE8F0E047D0EFEFE4BBE5BBAC
:1000EC0000E010E00830E0E01E0724F425D00F5F9C
:1000FC001F4FF8CF06E010E000240016010624F490
:10010C001BD001501040F8CFEBCFFFCF1FD05A2F90
:10011C0000E010E0E52FD801F0E0AE17BF0748F47F
:10012C0020E533ECF90131979F01E1F70F5F1F4F89
:10013C00F1CF13D026960895F801DE01EE0FFF1FC4
:10014C00AE0FBF1FEC91E5BBAAE0E0CF5A934A93E8
:10015C003A932A931A930A9308955D814C813B81BB
:10016C002A81198108810895AF93BF93DB01AC0FED
:10017C00BD1F05900D928A95E1F7BF91AF9108953F
:00000001FF
