:0E0000000C9446000C9400000C9400000C942C
:10000E0000000C9400000C9400000C9400000C9462
:10001E0000000C9400000C9400000C9400000C9452
:10002E0000000C9400000C9400000C9400000C9442
:10003E0000000C9400000C9400000C9400000C9432
:10004E0000000C9400000C9400000C9400000C9422
:10005E0000000C9400000C9400000C9400000C9412
:10006E0000000C9400000C9400000C9400000C9402
:10007E0000000C9400000C9400000C940000F89406
:10008E00EE27ECBBF1E0F5BFE5BFE0936C008DE031
:10009E00A2E0BB27ED938A95E9F780E090E1A0E01E
:1000AE00B1E0ED930197E9F78BBFEFEFEDBFE0E124
:1000BE00EEBFC0E0D5E00C9464001CEFEFEFE4BBA4
:1000CE001F3339F015BBA5E00FD0110F110F1360C0
:1000DE00F7CF1C3F39F015BBA5E006D01695169547
:1000EE00106CF7CFEDCFFFCF15D05A2F00E010E0F8
:1000FE00E52FD801F0E0AE17BF0748F420E533EC4A
:10010E00F90131979F01E1F70F5F1F4FF1CF09D032
:10011E00269608955A934A933A932A931A930A93DA
:10012E0008955D814C813B812A8119810881089552
:00000001FF
