:100000000C9446000C9400000C9400000C9400002A
:100010000C9400000C9400000C9400000C94000060
:100020000C9400000C9400000C9400000C94000050
:100030000C9400000C9400000C9400000C94000040
:100040000C9400000C9400000C9400000C94000030
:100050000C9400000C9400000C9400000C94000020
:100060000C9400000C9400000C9400000C94000010
:100070000C9400000C9400000C9400000C94000000
:100080000C9400000C9400000C940000F894EE27EF
:10009000ECBBF1E0F5BFE5BFE0936C008DE0A2E0C2
:1000A000BB27ED938A95E9F780E090E1A0E0B1E00D
:1000B000ED930197E9F78BBFEFEFEDBFE0E1EEBF06
:1000C000C0E0D5E00C946400EFEFE4BBE0E0E2B9FF
:1000D000EFEFE5BBE1B1E07F1E2FE0EFE1273E2F20
:1000E000E12FE295EF700E2FE32BE5BBF3CFFFCFAF
:00000001FF
