:040000000C944F000D
:100004000C9400000C9400000C9400000C9400006C
:100014000C9400000C9400000C9400000C9400005C
:100024000C9400000C9400000C9400000C9400004C
:100034000C9400000C9400000C9400000C948B00B1
:100044000C9400000C9400000C9400000C9400002C
:100054000C9400000C9400000C9400000C9400001C
:100064000C9400000C9400000C9400000C9400000C
:100074000C9400000C9400000C9400000C940000FC
:100084000C9400000C9400003F065B4F666D7D07E6
:100094007F6F0A0000058C000000F894EE27ECBB8B
:1000A400F1E0F5BFE5BFE0936C008DE0A2E0BB2773
:1000B400ED938A95E9F780E090E1A0E0B1E0ED935B
:1000C4000197E9F7E6E9F0E085919591009761F0F1
:1000D400A591B59105901590BF01F00105900D9281
:1000E4000197E1F7FB01F0CF8BBFEFEFEDBFE0E14C
:1000F400EEBFC0E0D5E00C947F00EFEFE4BBE0E09E
:10010400E2BFE1E0E7BFE7E0E3BFE0E8EFBFFFCF36
:10011400FFCF0A921A92FA926A937A938A939A93E5
:10012400AA93BA93EA93FA93EFB7EA935394EEE15E
:10013400E51529F412D05524F30131963F01E991D4
:10014400EFBFF991E991B991A99199918991799127
:100154006991F9901990099018954ED0D301E0EA6D
:10016400FCE858D0E1704E2FD301E0E1FEE030D03E
:100174005E2FD301E8E5F2E031D02E2FD301ECE37A
:10018400F0E026D03E2FD301EAE0F0E027D00E2F96
:10019400D301EAE0F0E051D01E2FE1E0EBBBE12F08
:1001A40023D0E2E0EBBBE02F1FD0E4E0EBBBE32F76
:1001B4001BD0E8E0EBBBE22F17D0E0E1EBBBE52F6F
:1001C40013D0E0E2EBBBE42F0FD01DD026960895A8
:1001D40021D0DF01EAE0F0E030D008951BD0DF0148
:1001E400E6E0F0E02AD00895F0E0E050FB4FE08133
:1001F400E8BBE0E0EBBB08955A934A933A932A9301
:100204001A930A9308955D814C813B812A81198157
:10021400088108950024112490E1AA0FBB1F001C3B
:10022400111C0E1A1F0A18F40E0E1F1E01C0A16025
:100234009A9599F7FD01D0010895ECDFFD01089529
:00000001FF
