:0A0000000C944F000C9400000C94C7
:10000A0000000C9400000C9400000C94C2000C94A4
:10001A00FF000C9400000C9400000C9400000C9457
:10002A0000000C9400000C9400000C9400000C9446
:10003A0010010C9400000C9400000C9400000C9425
:10004A0000000C9400000C9400000C9400000C9426
:10005A0000000C9400000C9400000C9400000C9416
:10006A0000000C9400000C9400000C9400000C9406
:10007A0000000C9400000C9400000C9400000C94F6
:10008A0000003F065B4F666D7D077F6F0A00000523
:10009A008C000000F894EE27ECBBF1E0F5BFE5BF59
:1000AA00E0936C008DE0A2E0BB27ED938A95E9F717
:1000BA0080E090E1A0E0B1E0ED930197E9F7E6E98D
:1000CA00F0E085919591009761F0A591B591059021
:1000DA001590BF01F00105900D920197E1F7FB0120
:1000EA00F0CF8BBFEFEFEDBFE0E1EEBFC0E0D5E0B0
:1000FA000C947F00EFEFE7BBE4BBE0936100E0E024
:10010A00E5BBE0E3E9BFE4E0E7BFE0E0EFBDE5E03F
:10011A00EEBD8FD0E0E8EFBF11D0ECE36E1660F0D1
:10012A00662473947E1640F0772488D0E8E1E415BB
:10013A0019F4662477244424EFCFFFCFEEEFE0933F
:10014A006200A62D84D0EDEFE0936200A62D8ED03A
:10015A00EBEFE0936200A72D7AD0E7EFE09362001D
:10016A00A72D84D0EFEEE0936200A42D70D0EFEDBE
:10017A00E0936200A42D7AD0089587D0309711F4C5
:10018A00639437C0E130A0E0FA0751F4EAE06E0E5A
:10019A00ECE36E1620F0A62D84D06E2E739429C03F
:1001AA00E230A0E0FA0711F4739423C0E330A0E030
:1001BA00FA0751F4EAE07E0EECE37E1620F0A72D52
:1001CA0070D07E2E3BD015C0E430A0E0FA0711F4BF
:1001DA0043940FC0E530A0E0FA0759F4EAE04E0E66
:1001EA00E8E14E1630F0A42DBB27E8E1F0E07AD022
:1001FA004E2E07C04AD03196DF01E6E0F0E072D019
:10020A005E2EE991EFBFF991E991B991A99199917E
:10021A00199009901895EA93FA93EFB7EA936394C1
:10022A0008D0E5B3E095E5BBE991EFBFF991E99113
:10023A001895E7EFF2ECFDBDECBD0895E42DF0E072
:10024A003196DF01E8E1F0E04DD04E2E0895BB274C
:10025A00EAE0F0E047D0E050FB4FE081E8BBA2E0E3
:10026A00B0E05CD0EFEFE09362000895B0E0EAE01E
:10027A00F0E033D0E050FB4FE081E8BBA2E0B0E011
:10028A004DD0EFEFE093620008950A921A929A9382
:10029A00AA93BA93EA93FA93EFB7EA93E52DF0E0BB
:1002AA000895BB27ECE3F0E01DD00895F195E195A0
:1002BA00F04008950024112490E1AA0FBB1F001CEE
:1002CA00111C0E1A1F0A18F40E0E1F1E01C0A1607F
:1002DA009A9599F7FD01D001089512D0EBDF0EF43B
:1002EA00E5DF0895E894B7FF04C0B195A195B04041
:1002FA006894F7FDDBDFDEDFFD010EF4D7DF08953A
:10030A00E894F7FF02C0D2DF6894B7FF06C0B19540
:10031A00A195B04000F8039400FA0895109639F0B8
:10032A00A89580EA9FE00197F1F71197C9F7089518
:00000001FF
